:020000040800F2
:10000000000004207D220008151800081D180008B3
:10001000251800082D1800083518000800000000F9
:100020000000000000000000000000003D18000873
:100030004B18000800000000591800086918000853
:10004000CD220008CD220008CD220008CD220008D4
:10005000CD220008CD220008CD220008CD220008C4
:10006000CD220008CD220008CD220008CD220008B4
:10007000CD220008CD220008CD220008CD220008A4
:100080004519000859190008CD220008CD220008A2
:10009000CD220008CD220008CD220008CD22000884
:1000A000CD220008CD220008CD220008CD22000874
:1000B000CD2200086D19000881190008CD22000822
:1000C000CD220008CD220008CD220008CD22000854
:1000D000CD22000895190008AD190008CD220008AE
:1000E000CD220008CD220008CD220008CD22000834
:1000F000CD220008CD220008CD220008CD22000824
:1001000000000000CD220008CD220008CD2200080A
:100110000000000000000000CD220008CD220008F1
:10012000CD220008CD220008CD220008CD220008F3
:10013000CD220008CD220008CD220008CD220008E3
:10014000CD220008CD220008CD220008CD220008D3
:10015000CD220008CD220008CD220008CD220008C3
:10016000CD220008CD2200080000000000000000A1
:10017000000000000000000000000000000000007F
:10018000CD220008CD220008000000000000000081
:10019000CD220008CD220008000000000000000071
:1001A000000000000000000000000000000000004F
:1001B000000000000000000000000000CD22000848
:0401C000CD22000844
:1001C80010B5054C237833B9044B13B10448AFF389
:1001D80000800123237010BD300C002000000000B7
:1001E8009051020808B5034B1BB103490348AFF30C
:1001F800008008BD00000000340C00209051020867
:10020800A3F5803A704700BF174B002B08BF134B6C
:100218009D46FFF7F5FF00218B460F461348144A09
:10022800121A22F046F80E4B002B00D098470D4BBF
:10023800002B00D098470020002104000D000D4835
:10024800002802D00C48AFF3008022F0E5F8200027
:10025800290001F085F921F08DFE00BF000008009B
:10026800000000000000000000000000300C00202A
:1002780078320020000000000000000060580208EA
:10028800000000202C0C0020300C002078320020C8
:1002980070B54FF0FF0C4CF4E06C1CEA11541DBF14
:1002A8001CEA135594EA0C0F95EA0C0F00F0DEF8DF
:1002B8002C4481EA030621EA4C5123EA4C5350EAC4
:1002C800013518BF52EA033541F4801143F4801315
:1002D80038D0A0FB02CE4FF00005E1FB02E506F0A6
:1002E8000042E0FB03E54FF00006E1FB03569CF0FB
:1002F800000F18BF4EF0010EA4F1FF04B6F5007F01
:1003080064F5407404D25FEA4E0E6D4146EB060672
:1003180042EAC62141EA55514FEAC52040EA5E50FB
:100328004FEACE2EB4F1FD0C88BFBCF5E06F1ED8A5
:10033800BEF1004F08BF5FEA500E50F1000041EBDC
:10034800045170BD06F0004646EA010140EA020089
:1003580081EA0301B4EB5C04C2BFD4EB0C0541EAAB
:10036800045170BD41F480114FF0000E013C00F3C0
:10037800AB8014F1360FDEBF002001F0004170BDE4
:10038800C4F10004203C35DA0C341BDC04F11404FD
:10039800C4F1200500FA05F320FA04F001FA05F289
:1003A80040EA020001F0004221F0004110EBD37056
:1003B80021FA04F642EB06015EEA430E08BF20EA82
:1003C800D37070BDC4F10C04C4F1200500FA04F325
:1003D80020FA05F001FA04F240EA020001F00041B7
:1003E80010EBD37041F100015EEA430E08BF20EA2A
:1003F800D37070BDC4F1200500FA05F24EEA020E72
:1004080020FA04F301FA05F243EA020321FA04F0A0
:1004180001F0004121FA04F220EA020000EBD37057
:100428005EEA430E08BF20EAD37070BD94F0000F57
:100438000FD101F00046400041EB010111F4801F8B
:1004480008BF013CF7D041EA060195F0000F18BF3C
:10045800704703F00046520043EB030313F4801F78
:1004680008BF013DF7D043EA0603704794EA0C0F32
:100478000CEA135518BF95EA0C0F0CD050EA410648
:1004880018BF52EA4306D1D181EA030101F00041C5
:100498004FF0000070BD50EA410606BF10461946ED
:1004A80052EA430619D094EA0C0F02D150EA0136F9
:1004B80013D195EA0C0F05D152EA03361CBF10463A
:1004C80019460AD181EA030101F0004141F0FE41D9
:1004D80041F470014FF0000070BD41F0FE4141F45D
:1004E800780170BD81F0004102E000BF83F0004355
:1004F80030B54FEA41044FEA430594EA050F08BFB7
:1005080090EA020F1FBF54EA000C55EA020C7FEA7A
:10051800645C7FEA655C00F0E2804FEA5454D4EBF7
:100528005555B8BF6D420CDD2C4480EA020281EAC1
:10053800030382EA000083EA010180EA020281EAF9
:100548000303362D88BF30BD11F0004F4FEA01314B
:100558004FF4801C4CEA113102D0404261EB41015A
:1005680013F0004F4FEA03334CEA133302D05242E0
:1005780063EB430394EA050F00F0A780A4F101049C
:10058800D5F1200E0DDB02FA0EFC22FA05F28018D6
:1005980041F1000103FA0EF2801843FA05F35941BC
:1005A8000EE0A5F120050EF1200E012A03FA0EFC3B
:1005B80028BF4CF0020C43FA05F3C01851EBE37165
:1005C80001F0004507D54FF0000EDCF1000C7EEB82
:1005D80000006EEB0101B1F5801F1BD3B1F5001FC0
:1005E8000CD349085FEA30004FEA3C0C04F10104DF
:1005F8004FEA445212F5800F80F09A80BCF1004F08
:1006080008BF5FEA500C50F1000041EB045141EA89
:10061800050130BD5FEA4C0C404141EB0101013C52
:1006280028BFB1F5801FE9D291F0000F04BF014641
:100638000020B1FA81F308BF2033A3F10B03B3F113
:1006480020020CDA0C3208DD02F1140CC2F10C02A3
:1006580001FA0CF021FA02F10CE002F11402D8BF01
:10066800C2F1200C01FA02F120FA0CFCDCBF41EACD
:100678000C019040E41AA2BF01EB0451294330BD9C
:100688006FEA04041F3C1CDA0C340EDC04F1140479
:10069800C4F1200220FA04F001FA02F340EA030050
:1006A80021FA04F345EA030130BDC4F10C04C4F196
:1006B800200220FA02F001FA04F340EA0300294676
:1006C80030BD21FA04F0294630BD94F0000F83F4C0
:1006D800801306BF81F480110134013D4EE77FEAA3
:1006E800645C18BF7FEA655C29D094EA050F08BFEF
:1006F80090EA020F05D054EA000C04BF19461046D0
:1007080030BD91EA030F1EBF0021002030BD5FEA13
:10071800545C05D14000494128BF41F0004130BD3B
:1007280014F580043CBF01F5801130BD01F000458F
:1007380045F0FE4141F470014FF0000030BD7FEA02
:10074800645C1ABF194610467FEA655C1CBF0B46FD
:10075800024650EA013406BF52EA033591EA030F14
:1007680041F4002130BD00BF90F0000F04BF00210C
:10077800704730B54FF4806404F132044FF000053F
:100788004FF0000150E700BF90F0000F04BF0021B8
:10079800704730B54FF4806404F1320410F000451E
:1007A80048BF40424FF000013EE700BF42004FEA19
:1007B800E2014FEA31014FEA02701FBF12F07F4396
:1007C80093F07F4F81F06051704732F07F4208BF4D
:1007D800704793F07F4F04BF41F40021704730B554
:1007E8004FF4607401F0004521F000411CE700BFA0
:1007F80050EA010208BF704730B54FF000050AE023
:1008080050EA010208BF704730B511F0004502D523
:10081800404261EB41014FF4806404F132045FEA25
:10082800915C3FF4D8AE4FF003025FEADC0C18BFCE
:1008380003325FEADC0C18BF033202EBDC02C2F1C0
:10084800200300FA03FC20FA02F001FA03FE40EA52
:100858000E0021FA02F11444BDE600BF70B54FF056
:10086800FF0C4CF4E06C1CEA11541DBF1CEA135534
:1008780094EA0C0F95EA0C0F00F0DEF82C4481EA9C
:10088800030621EA4C5123EA4C5350EA013518BFBC
:1008980052EA033541F4801143F4801338D0A0FBA9
:1008A80002CE4FF00005E1FB02E506F00042E0FB56
:1008B80003E54FF00006E1FB03569CF0000F18BF5C
:1008C8004EF0010EA4F1FF04B6F5007F64F5407404
:1008D80004D25FEA4E0E6D4146EB060642EAC62197
:1008E80041EA55514FEAC52040EA5E504FEACE2E04
:1008F800B4F1FD0C88BFBCF5E06F1ED8BEF1004F07
:1009080008BF5FEA500E50F1000041EB045170BD82
:1009180006F0004646EA010140EA020081EA0301C6
:10092800B4EB5C04C2BFD4EB0C0541EA045170BDC2
:1009380041F480114FF0000E013C00F3AB8014F13C
:10094800360FDEBF002001F0004170BDC4F1000485
:10095800203C35DA0C341BDC04F11404C4F1200506
:1009680000FA05F320FA04F001FA05F240EA020061
:1009780001F0004221F0004110EBD37021FA04F697
:1009880042EB06015EEA430E08BF20EAD37070BD51
:10099800C4F10C04C4F1200500FA04F320FA05F0B0
:1009A80001FA04F240EA020001F0004110EBD370B2
:1009B80041F100015EEA430E08BF20EAD37070BD22
:1009C800C4F1200500FA05F24EEA020E20FA04F3FB
:1009D80001FA05F243EA020321FA04F001F00041AA
:1009E80021FA04F220EA020000EBD3705EEA430E1B
:1009F80008BF20EAD37070BD94F0000F0FD101F04A
:100A08000046400041EB010111F4801F08BF013C82
:100A1800F7D041EA060195F0000F18BF704703F0C0
:100A28000046520043EB030313F4801F08BF013D47
:100A3800F7D043EA0603704794EA0C0F0CEA135503
:100A480018BF95EA0C0F0CD050EA410618BF52EABD
:100A58004306D1D181EA030101F000414FF00000C3
:100A680070BD50EA410606BF1046194652EA4306D1
:100A780019D094EA0C0F02D150EA013613D195EA45
:100A88000C0F05D152EA03361CBF104619460AD18D
:100A980081EA030101F0004141F0FE4141F4700197
:100AA8004FF0000070BD41F0FE4141F4780170BD87
:100AB80070B54FF0FF0C4CF4E06C1CEA11541DBFEC
:100AC8001CEA135594EA0C0F95EA0C0F00F0A7F8EE
:100AD800A4EB050481EA030E52EA03354FEA01311B
:100AE80000F088804FEA03334FF0805545EA13132E
:100AF80043EA12634FEA022245EA111545EA1065F6
:100B08004FEA00260EF000419D4208BF964244F18C
:100B1800FD0404F5407402D25B084FEA3202B61AAB
:100B280065EB03055B084FEA32024FF480104FF47F
:100B3800002CB6EB020E75EB030E22BFB61A7546F3
:100B480040EA0C005B084FEA3202B6EB020E75EB86
:100B5800030E22BFB61A754640EA5C005B084FEAEE
:100B68003202B6EB020E75EB030E22BFB61A7546BB
:100B780040EA9C005B084FEA3202B6EB020E75EBC6
:100B8800030E22BFB61A754640EADC0055EA060E87
:100B980018D04FEA051545EA16754FEA06164FEACA
:100BA800C30343EA52734FEAC2025FEA1C1CC0D176
:100BB80011F4801F0BD141EA00014FF000004FF003
:100BC800004CB6E711F4801F04BF01430020B4F1C4
:100BD800FD0C88BFBCF5E06F3FF6AFAEB5EB030C7C
:100BE80004BFB6EB020C5FEA500C50F1000041EB79
:100BF800045170BD0EF0004E4EEA113114EB5C0446
:100C0800C2BFD4EB0C0541EA045170BD41F4801118
:100C18004FF0000E013C90E645EA060E8DE60CEA20
:100C2800135594EA0C0F08BF95EA0C0F3FF43BAF3D
:100C380094EA0C0F0AD150EA01347FF434AF95EAF4
:100C48000C0F7FF425AF104619462CE795EA0C0FD8
:100C580006D152EA03353FF4FDAE1046194622E7A5
:100C680050EA410618BF52EA43067FF4C5AE50EA7F
:100C780041047FF40DAF52EA43057FF4EBAE12E76F
:100C88004FF0FF3C06E000BF4FF0010C02E000BF50
:100C98004FF0010C4DF804CD4FEA410C7FEA6C5C33
:100CA8004FEA430C18BF7FEA6C5C1BD001B050EAD6
:100CB800410C0CBF52EA430C91EA030F02BF90EAC1
:100CC800020F0020704710F1000F91EA030F58BF80
:100CD800994208BF90422CBFD8176FEAE37040F0E2
:100CE800010070474FEA410C7FEA6C5C02D150EA80
:100CF800013C07D14FEA430C7FEA6C5CD6D152EA3B
:100D0800033CD3D05DF8040B704700BF84461046FF
:100D180062468C461946634600E000BF01B5FFF7FE
:100D2800B7FF002848BF10F1000F01BD4DF808EDCE
:100D3800FFF7F4FF0CBF012000205DF808FB00BF9F
:100D48004DF808EDFFF7EAFF34BF012000205DF8F9
:100D580008FB00BF4DF808EDFFF7E0FF94BF012046
:100D680000205DF808FB00BF4DF808EDFFF7CEFF47
:100D780094BF012000205DF808FB00BF4DF808ED86
:100D8800FFF7C4FF34BF012000205DF808FB00BF57
:100D98004FEA410C7FEA6C5C02D150EA013C0AD16F
:100DA8004FEA430C7FEA6C5C02D152EA033C02D161
:100DB8004FF0000070474FF0010070474FEA4102C2
:100DC80012F5001215D211D56FF47873B3EB625295
:100DD80012D94FEAC12343F0004343EA505311F0BC
:100DE800004F23FA02F018BF404270474FF000004E
:100DF800704750EA013005D111F0004008BF6FF08C
:100E0800004070474FF00000704700BF4A0011D201
:100E180012F5001211D20DD56FF47873B3EB62524C
:100E28000ED44FEAC12343F0004343EA505323FA58
:100E380002F070474FF00000704750EA013002D1CD
:100E48004FF0FF3070474FF0000070474FEA410203
:100E5800B2F1E04324BFB3F5001CDCF1FE5C0DD910
:100E680001F0004C4FEAC0024CEA5070B2F1004F5A
:100E780040EB830008BF20F00100704711F0804F5D
:100E880021D113F13872BCBF01F00040704741F422
:100E980080114FEA5252C2F11802C2F1200C10FA26
:100EA8000CF320FA02F018BF40F001004FEAC1230A
:100EB8004FEAD32303FA0CFC40EA0C0023FA02F3AE
:100EC8004FEA4303CCE77FEA625307D150EA013384
:100ED8001EBF4FF0FE4040F44000704701F0004054
:100EE80040F0FE4040F40000704700BF53B94AB9D3
:100EF800002908BF00281CBF4FF0FF314FF0FF301A
:100F080000F0BEB9ADF1080C6DE904CE00F03CF874
:100F1800DDF804E0DDE9022304B0704738B50022AB
:100F2800002304460D46FFF70BFF28B92046294643
:100F3800BDE8384000F00AB8204605F1004100F04D
:100F480005F8404261EB410138BD00BFD0B50C4BFC
:100F5800002206460F46FFF781FCFFF757FF0446BD
:100F6800FFF702FC074B0022FFF778FC02460B460E
:100F780030463946FFF7BAFAFFF748FF2146D0BD99
:100F88000000F03D0000F0412DE9F047089D8E4635
:100F980004468846002B4AD18A42174662D9B2FADB
:100FA80082F64EB1C6F1200301FA06F820FA03F3DF
:100FB800B74043EA0808B4404FEA174E1FFA87FCC7
:100FC800B8FBFEF1230C0EFB118843EA084301FB32
:100FD8000CF29A4209D9FB1801F1FF3080F0EA803F
:100FE8009A4240F2E78002393B449A1AA3B2B2FB14
:100FF800FEF00EFB102243EA024300FB0CFC9C456A
:1010080009D9FB1800F1FF3280F0D6809C4540F2E8
:10101800D3803B44023840EA0140A3EB0C03002193
:101028001DB1F3400022C5E90032BDE8F0878B42CC
:1010380005D90DB1C5E9000100210846F5E7B3FA65
:1010480083F1002946D1734502D3824200F205811B
:10105800841A6EEB030201209046002DE5D0C5E905
:101068000048E2E7002A00F09080B2FA82F6002EEB
:1010780040F0A4808A1A030C4FEA174E80B2BCB223
:101088000121B2FBFEFC0EFB1C2243EA024304FBD7
:101098000CF29A4207D9FB180CF1FF3802D29A4297
:1010A80000F2E080C4469B1AB3FBFEF20EFB12333B
:1010B80040EA034302FB04F49C4207D9FB1802F1FF
:1010C800FF3002D29C4200F2CA8002461B1B42EA51
:1010D8000C40A5E7C1F120068B4022FA06F71F4312
:1010E8000EFA01F420FA06F32EFA06FE4FEA174923
:1010F800234300FA01F81FFA87FCBEFBF9F01C0C29
:1011080009FB10EE44EA0E4400FB0CFEA64502FA69
:1011180001F209D93C1900F1FF3A80F09C80A645FC
:1011280040F2998002383C44A4EB0E041FFA83FE77
:10113800B4FBF9F309FB13444EEA044403FB0CFC2B
:10114800A44508D93C1903F1FF3E80F08280A445EC
:101158007FD9023B3C4443EA0040A4EB0C04A0FBCB
:1011680002EC64457346E14662D35FD05DB1B8EBEB
:10117800030264EB090404FA06F622FA01F31E439B
:10118800CC40C5E9006400214FE7B1FBF2FC010C3B
:1011980041EA0E4180B240EA01423B4638463C46AD
:1011A800B846BE462026B1FBF7F1A2EB080241EA99
:1011B8000C4166E7014618E710462CE7C6F1200205
:1011C8002EFA02F3B740B14020FA02F24FEA174E66
:1011D8000A43B3FBFEF8BCB20EFB1833110C41EA0C
:1011E800034108FB04F9B04089454FEA104380B237
:1011F8003ED9791808F1FF3C01D289451FD8A1EBE7
:101208000901B1FBFEF909FB04F80EFB191192B2B2
:1012180042EA0142424529D2BA1809F1FF31C4D243
:101228004245C2D2A9F102013A44BEE7F0459DD237
:10123800BEEB02036CEB070C0138E14696E7A7EB1F
:1012480009094944A8F1020CB1FBFEF909FB04F8AD
:10125800DBE773467FE7504666E70846FDE63B4412
:10126800023A33E7ACF1020C3B441CE749469CE7E1
:10127800A1EB0901C446B1FBFEF909FB04F8C4E778
:10128800704700BF80B582B000AF00237B60104B71
:101298001B6B0F4A43F4001313630D4B1B6B03F4D2
:1012A80000137B607B6800220021102001F0EBFB1B
:1012B800102001F004FC00220021112001F0E3FBC2
:1012C800112001F0FCFB00BF0837BD4680BD00BF00
:1012D8000038024080B500AF174B184A1A60164B09
:1012E800174A5A60144B00229A60134B0122DA60A5
:1012F800114B00221A61104B00225A610E4B00223A
:101308009A610D4B0022DA610B4B4FF400321A62DE
:10131800094804F015FE0346002B01D000F0AAF995
:10132800002105480AF0F5F80346002B01D000F02B
:10133800A1F900BF80BD00BF4C0C00200060004038
:10134800FFEAC00080B598B000AF786007F14C03A1
:1013580000221A605A609A60DA601A6107F1100375
:101368003C220021184620F0A4FF7B681B68214A14
:1013780093423AD110233B6100237B6307F11003AA
:1013880018460BF05BFD0346002B01D000F072F904
:101398000023FB60184B1B6B174A43F002031363CF
:1013A800154B1B6B03F00203FB60FB684FF44043D3
:1013B800FB6412233B6501237B650323BB65042380
:1013C800FB6507F14C0319460C480AF07FF9002326
:1013D800BB60094B1B6C084A43F080731364064BCF
:1013E8001B6C03F08073BB60BB6800BF6037BD46F1
:1013F80080BD00BF00600040003802400004024089
:1014080080B582B000AF78607B681B68084A934259
:101418000AD1084B1B6C074A23F0807313644FF4FE
:10142800404105480AF0C6FA00BF0837BD4680BDEE
:1014380000600040003802400004024080B588B0D7
:1014480000AF07F10C0300221A605A609A60DA6054
:101458001A610023BB60324B1B6B314A43F0010316
:1014680013632F4B1B6B03F00103BB60BB680023A6
:101478007B602B4B1B6B2A4A43F002031363284BF8
:101488001B6B03F002037B607B6800224CF21201A5
:1014980024480AF07BFB002242F2010122480AF0AC
:1014A80075FB0223FB6001233B6101237B6102235F
:1014B800BB6107F10C0319461A480AF007F94CF208
:1014C8001003FB6001233B6100237B610023BB61A8
:1014D80007F10C03194613480AF0F8F80123FB60DA
:1014E80001233B6100237B610023BB6107F10C03EF
:1014F80019460D480AF0EAF84FF40053FB6001233F
:101508003B6100237B610123BB6107F10C03194692
:1015180005480AF0DBF800BF2037BD4680BD00BF94
:1015280000380240000002400004024080B500AFCD
:10153800094B0A4A1A60084B03225A60064B40F6C8
:10154800FF729A6004480AF0A0FB0346002B01D002
:1015580000F090F800BF80BDA00C002000300040D3
:1015680080B500AF00F0B0FE00F018F8FFF766FF96
:10157800FFF788FE00F0EAFB00F0F6FC00F080F8C8
:10158800FFF7A8FE00F01AFDFFF7D0FF00F02CFCD3
:101598001EF022FC1EF028FC00BFFDE780B594B0C9
:1015A80000AF07F11C0334220021184620F081FE09
:1015B80007F1080300221A605A609A60DA601A611B
:1015C80000237B60294B1B6C284A43F0805313642B
:1015D800264B1B6C03F080537B607B6800233B60C9
:1015E800234B1B68224A43F440431360204B1B687B
:1015F80003F440433B603B680A23FB610123BB6261
:101608001023FB6201233B6302237B630023BB633C
:101618000823FB6364233B6402237B640223BB64CB
:101628000223FB6407F11C0318460CF00DF903466E
:10163800002B01D000F01EF80F23BB600223FB60D3
:1016480000233B614FF480537B610023BB6107F1AA
:101658000803032118460BF0AFF80346002B01D00E
:1016680000F008F800BF5037BD4680BD0038024082
:101678000070004080B400AF72B600BF00BFFDE745
:1016880080B500AF184B194A1A60174B4FF4827295
:101698005A60154B00229A60134B4FF40062DA60CF
:1016A800114B00221A61104B00225A610E4B4FF465
:1016B80000729A610C4B1822DA610B4B00221A62F5
:1016C800094B00225A62084B00229A62064B0A22F2
:1016D800DA6205480CF0D8FB0346002B01D0FFF76F
:1016E800C9FF00BF80BD00BFAC0C00200030014026
:1016F80080B58AB000AF786007F1140300221A6041
:101708005A609A60DA601A617B681B68194A9342CA
:101718002BD100233B61184B5B6C174A43F4805371
:101728005364154B5B6C03F480533B613B690023A6
:10173800FB60114B1B6B104A43F0010313630E4B04
:101748001B6B03F00103FB60FB68E0237B61022352
:10175800BB610023FB6103233B6205237B6207F126
:1017680014031946054809F0B1FF00BF2837BD46E4
:1017780080BD00BF00300140003802400000024038
:1017880080B582B000AF78607B681B68084A9342D6
:1017980009D1084B5B6C074A23F480535364E0215A
:1017A80005480AF007F900BF0837BD4680BD00BFED
:1017B80000300140003802400000024080B483B08D
:1017C80000AF00237B60104B5B6C0F4A43F48043EF
:1017D80053640D4B5B6C03F480437B607B68002390
:1017E8003B60094B1B6C084A43F080531364064B5B
:1017F8001B6C03F080533B603B6800BF0C37BD4651
:101808005DF8047B704700BF0038024080B400AF29
:1018180000BFFDE780B400AF00BFFDE780B400AFB4
:1018280000BFFDE780B400AF00BFFDE780B400AFA4
:1018380000BFFDE780B400AF00BFBD465DF8047B84
:10184800704780B400AF00BFBD465DF8047B7047A9
:1018580080B400AF00BFBD465DF8047B7047000050
:1018680080B500AF00F0B8FD284B1B680133274A4C
:101878001360274B1B680133254A1360254B1B68EF
:101888000133244A1360244B1B680133224A136036
:10189800224B1B680133214A13601C4B1B68632BC6
:1018A80005D91A4B00221A601D4B01221A70184BD9
:1018B8001B68B3F57A7F05D3154B00221A60194BC4
:1018C80001221A70134B1B68B3F57A7F05D3114BAD
:1018D80000221A60144B01221A700F4B1B68134A1E
:1018E800934205D90C4B00221A60114B01221A7041
:1018F8000A4B1B680F4A934205D9084B00221A600D
:101908000D4B01221A7000BF80BD00BF040D0020DE
:10191800080D00200C0D0020100D0020140D0020D3
:10192800D1100020D2100020D3100020DF93040033
:10193800D4100020BF270900D510002080B500AFC3
:10194800024801F027FD00BF80BD00BF400E002007
:1019580080B500AF024801F01DFD00BF80BD00BF8B
:10196800A00E002080B500AF024812F03CFB00BF7B
:1019780080BD00BF200D002080B500AF024812F0E6
:1019880032FB00BF80BD00BF680D002080B500AFEE
:101998001DF010FC024818F0C7F900BF80BD00BF59
:1019A800B00D002080B500AF024818F0BDF900BFA7
:1019B80080BD00BFF80D002080B400AF00BFBD4659
:1019C8005DF8047B704780B400AF01231846BD461C
:1019D8005DF8047B704780B582B000AF78603960ED
:1019E80020F014FD034616221A604FF0FF33184604
:1019F8000837BD4680BD80B582B000AF78604FF033
:101A0800FF317868FFF7E7FF00BFFDE780B586B0D4
:101A180000AFF860B9607A6000237B610AE0AFF339
:101A280000800146BB685A1CBA60CAB21A707B694A
:101A380001337B617A697B689A42F0DB7B681846E0
:101A48001837BD4680BD80B586B000AFF860B96074
:101A58007A6000237B6109E0BB685A1CBA601B7876
:101A68001846AFF300807B6901337B617A697B6834
:101A78009A42F1DB7B6818461837BD4680BD80B4B2
:101A880083B000AF78604FF0FF3318460C37BD467F
:101A98005DF8047B704780B483B000AF786039602C
:101AA8003B684FF400525A60002318460C37BD4675
:101AB8005DF8047B704780B483B000AF7860012381
:101AC80018460C37BD465DF8047B704780B485B076
:101AD80000AFF860B9607A60002318461437BD4635
:101AE8005DF8047B70470EB480B482B000AF7860B4
:101AF8004FF0FF3318460837BD465DF8047B03B046
:101B0800704780B582B000AF786020F07FFC034654
:101B18000A221A604FF0FF3318460837BD4680BDC9
:101B280080B582B000AF786020F070FC03460222D6
:101B38001A604FF0FF3318460837BD4680BD80B4A1
:101B480083B000AF78604FF0FF3318460C37BD46BE
:101B58005DF8047B704780B483B000AF786039606B
:101B68003B684FF400525A60002318460C37BD46B4
:101B78005DF8047B704780B582B000AF786039604B
:101B880020F044FC03461F221A604FF0FF3318462A
:101B98000837BD4680BD80B500AF20F037FC03464E
:101BA8000B221A604FF0FF33184680BD80B584B011
:101BB80000AFF860B9607A6020F028FC03460C2278
:101BC8001A604FF0FF3318461037BD4680BD00003D
:101BD80080B586B000AF7860144A154BD31A7B6184
:101BE8007B693B61134B1B68002B02D1114B124AD6
:101BF8001A60104B1A687B6813443A699A4207D2F4
:101C080020F004FC03460C221A604FF0FF3309E071
:101C1800084B1B68FB60074B1A687B681344054A2E
:101C28001360FB6818461837BD4680BD00000420C5
:101C3800000400001C0D00207832002080B400AFA2
:101C4800064BD3F88830054A43F47003C2F888304D
:101C580000BFBD465DF8047B704700BF00ED00E0A3
:101C680080B487B000AF344B9B6803F00C033B6132
:101C78003B69082B11D03B69082B44D83B69002BE2
:101C880003D03B69042B04D03DE02C4B2C4A1A604E
:101C98003DE02A4B2B4A1A6039E0274B5B689B0DC5
:101CA80003F00103FB60244B5B6803F03F03BB6058
:101CB800FB68002B0CD0234ABB68B2FBF3F31E4A27
:101CC80052689209C2F3080202FB03F37B610BE03E
:101CD8001B4ABB68B2FBF3F3174A52689209C2F376
:101CE800080202FB03F37B61134B5B681B0C03F0D8
:101CF800030301335B007B607A697B68B2FBF3F313
:101D08000E4A136003E00D4B0D4A1A6000BF0A4BE0
:101D18009B681B0903F00F030B4AD35C3B61074B1D
:101D28001A683B6922FA03F3044A136000BF1C37A0
:101D3800BD465DF8047B704700380240080000206B
:101D48000024F40040787D01F851020880B586B07F
:101D580000AF07F1080300221A605A609A60DA603F
:101D68003B4600221A605A601D4B1E4A1A601C4BE3
:101D780000225A601A4B00229A60194B42F20F72E5
:101D8800DA60174B00221A61154B00229A61144839
:101D98000EF05AFB0346002B01D0FFF76BFC4FF403
:101DA8008053BB6007F1080319460D4813F05CF92E
:101DB8000346002B01D0FFF75DFC00233B600023A6
:101DC8007B603B461946064816F050FA0346002B3E
:101DD80001D0FFF74FFC00BF1837BD4680BD00BFDC
:101DE800200D00200004004080B586B000AF07F148
:101DF800080300221A605A609A60DA603B460022A3
:101E08001A605A601D4B1E4A1A601C4B63225A60A6
:101E18001A4B00229A60194B42F20F72DA60174B84
:101E280000221A61154B00229A6114480EF00CFB2F
:101E38000346002B01D0FFF71DFC4FF48053BB6015
:101E480007F1080319460D4813F00EF90346002B55
:101E580001D0FFF70FFC00233B6000237B603B466B
:101E68001946064816F002FA0346002B01D0FFF780
:101E780001FC00BF1837BD4680BD00BF680D0020BB
:101E88000008004080B584B000AF78607B681B68AC
:101E98001C4A934216D10023FB601B4B1B6C1A4A49
:101EA80043F002031364184B1B6C03F00203FB603E
:101EB800FB68002200211D2000F0E5FD1D2000F038
:101EC800FEFD1AE07B681B68104A934215D1002377
:101ED800BB600D4B1B6C0C4A43F0040313640A4BA4
:101EE8001B6C03F00403BB60BB68002200211E20AA
:101EF80000F0C9FD1E2000F0E2FD00BF1037BD460E
:101F080080BD00BF000400400038024000080040C7
:101F180080B582B000AF78607B681B680F4A934237
:101F280009D10F4B1B6C0E4A23F0020313641D20CA
:101F380000F0D3FD0DE07B681B680A4A934208D184
:101F4800074B1B6C064A23F0040313641E2000F0A1
:101F5800C4FD00BF0837BD4680BD00BF0004004077
:101F6800003802400008004080B500AF114B124A0B
:101F78001A60104B4FF4E1325A600E4B00229A60FF
:101F88000C4B0022DA600B4B00221A61094B0C2221
:101F98005A61084B00229A61064B0022DA61054813
:101FA80016F069FB0346002B01D0FFF763FB00BF67
:101FB80080BD00BFB00D00200010014080B500AF0B
:101FC800114B124A1A60104B4FF416525A600E4BBE
:101FD80000229A600C4B0022DA600B4B00221A6137
:101FE800094B0C225A61084B00229A61064B0022C9
:101FF800DA61054816F03FFB0346002B01D0FFF7D6
:1020080039FB00BF80BD00BFF80D00200044004030
:1020180080B58CB000AF786007F11C0300221A600D
:102028005A609A60DA601A617B681B68694A934251
:1020380035D10023BB61684B5B6C674A43F01003E2
:102048005364654B5B6C03F01003BB61BB690023F1
:102058007B61614B1B6B604A43F0010313635E4B6A
:102068001B6B03F001037B617B694FF4C063FB6169
:1020780002233B6201237B620323BB620723FB62CB
:1020880007F11C031946554809F020FB00220021DE
:10209800252000F0F8FC252000F011FD96E07B6873
:1020A8001B684F4A934240F0918000233B614A4BA2
:1020B8001B6C494A43F400331364474B1B6C03F40D
:1020C80000333B613B690023FB60434B1B6B424A77
:1020D80043F001031363404B1B6B03F00103FB60E8
:1020E800FB680C23FB6102233B6200237B62032312
:1020F800BB620723FB6207F11C031946374809F046
:10210800E5FA384B384A1A60364B4FF000625A608D
:10211800344B00229A60334B0022DA60314B4FF483
:1021280080621A612F4B00225A612E4B00229A615D
:102138002C4B4FF48072DA612A4B00221A62294B29
:1021480000225A62274800F015FE0346002B01D0F2
:10215800FFF790FA7B68234ADA63224A7B68936325
:10216800224B234A1A60214B4FF000625A601F4BE2
:1021780040229A601D4B0022DA601C4B4FF48062AB
:102188001A611A4B00225A61184B00229A61174BA8
:102198000022DA61154B00221A62144B00225A629F
:1021A800124800F0E7FD0346002B01D0FFF762FA62
:1021B8007B680E4A9A630D4A7B689363002200216C
:1021C800262000F060FC262000F079FC00BF3037A4
:1021D800BD4680BD001001400038024000000240AA
:1021E80000440040400E002088600240A00E0020FD
:1021F800A060024080B582B000AF78607B681B6841
:10220800184A93420ED1184B5B6C174A23F01003FF
:1022180053644FF4C061154809F0CCFB252000F049
:102228005CFC1BE07B681B68114A934216D10E4B7D
:102238001B6C0D4A23F4003313640C210B4809F07E
:10224800B9FB7B68DB6B184600F042FE7B689B6B32
:10225800184600F03DFE262000F03FFC00BF08377E
:10226800BD4680BD00100140003802400000024019
:1022780000440040DFF834D0FFF7E0FC0C480D497B
:102288000D4A002302E0D458C4500433C4188C42C9
:10229800F9D30A4A0A4C002301E013600432A2422F
:1022A800FBD320F0B9F8FFF75BF970470000042072
:1022B800000000202C0C002060580208300C002080
:1022C80078320020FEE7000080B500AF0E4B1B6897
:1022D8000D4A43F4007313600B4B1B680A4A43F41E
:1022E80080631360084B1B68074A43F480731360CC
:1022F800032000F0BDFB0F2000F03EF8FFF75EFA68
:102308000023184680BD00BF003C024080B500AFE6
:102318000E4B0F4A1A620D4B00221A620B4B0D4AE4
:102328005A620A4B00225A62084B0B4A1A61074B41
:1023380000221A61054BC0225A61044B00225A61DF
:1023480000F013F80023184680BD00BF0038024093
:10235800FFC9E617337917018710600080B400AF12
:1023680000BFBD465DF8047B704780B400AF00BF76
:10237800BD465DF8047B704780B582B000AF7860D9
:10238800124B1A68124B1B7819464FF47A73B3FB39
:10239800F1F3B2FBF3F3184600F0B1FB0346002B50
:1023A80001D001230EE07B680F2B0AD80022796840
:1023B8004FF0FF3000F067FB064A7B68136000238C
:1023C80000E0012318460837BD4680BD08000020FC
:1023D800100000200C00002080B400AF064B1B78D2
:1023E8001A46064B1B681344044A136000BFBD46D7
:1023F8005DF8047B704700BF10000020000F00202C
:1024080080B400AF034B1B681846BD465DF8047BDB
:10241800704700BF000F002080B400AF034B1B685B
:102428001846BD465DF8047B704700BF0C000020CD
:1024380080B584B000AF0346FB710023FB730E4BDD
:102448001B78FA799A4212D00B4B1B78BB730A4A55
:10245800FB791370094B1B681846FFF78DFF03467D
:10246800FB73FB7B002B02D0034ABB7B1370FB7B07
:1024780018461037BD4680BD100000200C00002013
:1024880080B400AF034B1B781846BD465DF8047B4B
:10249800704700BF1000002080B584B000AF78609E
:1024A800FFF7AEFFB8607B68FB60FB68B3F1FF3FE6
:1024B80005D00A4B1B781A46FB681344FB6000BF23
:1024C800FFF79EFF0246BB68D31AFA689A42F7D80C
:1024D80000BF00BF1037BD4680BD00BF1000002000
:1024E80080B400AF054B1B68044A23F00203136055
:1024F80000BFBD465DF8047B704700BF10E000E0F8
:1025080080B400AF054B1B68044A43F00203136014
:1025180000BFBD465DF8047B704700BF10E000E0D7
:1025280080B400AF024B1846BD465DF8047B704787
:102538000004080180B400AF034B1B681B0C18464D
:10254800BD465DF8047B7047002004E080B400AF0E
:10255800044B1B68C3F30B031846BD465DF8047BA8
:10256800704700BF002004E080B400AF054B5B68F3
:10257800044A43F00103536000BFBD465DF8047B85
:10258800704700BF002004E080B400AF054B5B68D3
:10259800044A23F00103536000BFBD465DF8047B85
:1025A800704700BF002004E080B400AF054B5B68B3
:1025B800044A43F00203536000BFBD465DF8047B44
:1025C800704700BF002004E080B400AF054B5B6893
:1025D800044A23F00203536000BFBD465DF8047B44
:1025E800704700BF002004E080B400AF054B5B6873
:1025F800044A43F00403536000BFBD465DF8047B02
:10260800704700BF002004E080B400AF054B5B6852
:10261800044A23F00403536000BFBD465DF8047B01
:10262800704700BF002004E080B400AF034B0122D4
:102638001A6000BFBD465DF8047B7047000427425E
:1026480080B400AF034B00221A6000BFBD465DF89E
:10265800047B70470004274280B400AF034B1B681B
:102668001846BD465DF8047B704700BF107AFF1F0F
:1026780080B400AF034B1B681846BD465DF8047B69
:10268800704700BF147AFF1F80B400AF034B1B686C
:102698001846BD465DF8047B704700BF187AFF1FD7
:1026A80080B485B000AF78607B6803F00703FB60F7
:1026B8000C4BDB68BB60BA684FF6FF031340BB6086
:1026C800FB681A02BB68134343F0BF6343F400334B
:1026D800BB60044ABB68D36000BF1437BD465DF8D1
:1026E800047B704700ED00E080B400AF044BDB686A
:1026F8001B0A03F007031846BD465DF8047B7047C4
:1027080000ED00E080B483B000AF0346FB7197F999
:102718000730002B0BDBFB7903F01F02074997F901
:1027280007305B09012000FA02F241F8232000BFBC
:102738000C37BD465DF8047B704700BF00E100E040
:1027480080B483B000AF0346FB7197F90730002BC4
:1027580012DBFB7903F01F020A4997F907305B097E
:10276800012000FA02F2203341F82320BFF34F8FF3
:1027780000BFBFF36F8F00BF00BF0C37BD465DF8C9
:10278800047B704700E100E080B483B000AF0346EB
:10279800FB7197F90730002B0EDB0B4A97F90730CE
:1027A8005B09403352F82320FB7903F01F0322FA18
:1027B80003F303F0010300E0002318460C37BD467D
:1027C8005DF8047B704700BF00E100E080B483B08F
:1027D80000AF0346FB7197F90730002B0CDBFB7940
:1027E80003F01F02074997F907305B09012000FA37
:1027F80002F2403341F8232000BF0C37BD465DF894
:10280800047B704700E100E080B483B000AF03466A
:10281800FB7197F90730002B0CDBFB7903F01F02E3
:10282800074997F907305B09012000FA02F2603383
:1028380041F8232000BF0C37BD465DF8047B704784
:1028480000E100E080B483B000AF0346FB7197F964
:102858000730002B0EDB0B4A97F907305B098033F2
:1028680052F82320FB7903F01F0322FA03F303F045
:10287800010300E0002318460C37BD465DF8047BD1
:10288800704700BF00E100E080B483B000AF0346AA
:102898003960FB7197F90730002B0ADB3B68DAB225
:1028A8000C4997F907301201D2B20B4483F8002380
:1028B8000AE03B68DAB20849FB7903F00F03043BEE
:1028C8001201D2B20B441A7600BF0C37BD465DF830
:1028D800047B704700E100E000ED00E080B483B0C5
:1028E80000AF0346FB7197F90730002B09DB0D4A4F
:1028F80097F90730134493F80033DBB21B09DBB2B6
:1029080009E0094AFB7903F00F03043B13441B7EDB
:10291800DBB21B09DBB218460C37BD465DF8047BF9
:10292800704700BF00E100E000ED00E080B489B02E
:1029380000AFF860B9607A60FB6803F00703FB61D9
:10294800FB69C3F10703042B28BF0423BB61FB69A0
:102958000433062B02D9FB69033B00E000237B61AB
:102968004FF0FF32BB6902FA03F3DA43BB681A403F
:102978007B699A404FF0FF317B6901FA03F3D94331
:102988007B680B40134318462437BD465DF8047B2B
:10299800704780B489B000AFF860B9607A603B6076
:1029A800BB6803F00703FB61FB69C3F10703042B52
:1029B80028BF0423BB61FB690433062B02D9FB69DA
:1029C800033B00E000237B61FA687B69DA404FF043
:1029D800FF31BB6901FA03F3DB431A407B681A60D5
:1029E8004FF0FF327B6902FA03F3DA43FB681A40BF
:1029F8003B681A6000BF2437BD465DF8047B70470A
:102A080080B400AFBFF34F8F00BF064BDB6803F401
:102A1800E0620449044B1343CB60BFF34F8F00BF00
:102A280000BFFDE700ED00E00400FA0580B582B0C4
:102A380000AF78607B68013BB3F1807F01D301234D
:102A48000FE00A4A7B68013B53600F214FF0FF30CB
:102A5800FFF71AFF054B00229A60044B07221A6001
:102A6800002318460837BD4680BD00BF10E000E0CF
:102A780080B582B000AF78607868FFF711FE00BFBC
:102A88000837BD4680BD80B586B000AF0346B96043
:102A98007A60FB7300237B61FFF726FE78617A6812
:102AA800B9687869FFF742FF024697F90F30114677
:102AB8001846FFF7E9FE00BF1837BD4680BD80B550
:102AC80082B000AF0346FB7197F907301846FFF74D
:102AD80019FE00BF0837BD4680BD80B582B000AF83
:102AE8000346FB7197F907301846FFF729FE00BF28
:102AF8000837BD4680BD80B500AFFFF781FF80B5C0
:102B080082B000AF78607868FFF790FF03461846F8
:102B18000837BD4680BD000080B400AFBFF35F8FAB
:102B280000BF074B5B6A064A23F480335362054BA8
:102B380000225A6000BFBD465DF8047B704700BFA5
:102B480000ED00E090ED00E080B483B000AF786065
:102B58000B4A7B6843F0010353600A4B5B6A094ADE
:102B680043F480335362BFF34F8F00BFBFF36F8FBF
:102B780000BF00BF0C37BD465DF8047B704700BF3F
:102B880090ED00E000ED00E080B483B000AF786025
:102B9800074A7B689360064B1B69054A43F00103AB
:102BA800136100BF0C37BD465DF8047B704700BF5A
:102BB80090ED00E080B483B000AF7860074A7B688E
:102BC8009360064B1B69054A23F00103136100BF9C
:102BD8000C37BD465DF8047B704700BF90ED00E000
:102BE80080B483B000AF78607B685A781B4B9A60DA
:102BF8001A4B1B69194A23F001031361174A7B68B2
:102C08005B68D3607B681B7B1A077B68DB7A1B06D3
:102C18001A437B689B7ADB041A437B685B7B9B04C3
:102C28001A437B689B7B5B041A437B68DB7B1B0432
:102C38001A437B685B7A1B021A437B681B7A5B002A
:102C480013437A6812781146044A0B43136100BF94
:102C58000C37BD465DF8047B704700BF90ED00E07F
:102C680080B400AF40BF20BF00BFBD465DF8047B05
:102C7800704780B500AFFFF737FD0346184680BDA3
:102C880080B584B000AFB9607A603B600346FB73DF
:102C980097F90F301846FFF721FE3B687A68B96844
:102CA800FFF777FE00BF1037BD4680BD80B582B004
:102CB80000AF0346FB7197F907301846FFF786FD0A
:102CC80000BF0837BD4680BD80B582B000AF03465F
:102CD800FB7197F907301846FFF756FD034618466B
:102CE8000837BD4680BD80B582B000AF0346FB7192
:102CF80097F907301846FFF787FD00BF0837BD462C
:102D080080BD80B582B000AF0346FB7197F90730EC
:102D18001846FFF797FD034618460837BD4680BD9D
:102D280080B483B000AF78607B68042B06D1094B70
:102D38001B68084A43F00403136005E0054B1B6851
:102D4800044A23F00403136000BF0C37BD465DF846
:102D5800047B704710E000E080B500AF00F002F897
:102D680000BF80BD80B400AF00BFBD465DF8047BE6
:102D78007047000080B586B000AF786000237B61A3
:102D8800FFF73EFB38617B68002B01D1012399E0F6
:102D98007B68022283F835207B68002283F8342080
:102DA8007B681B681A687B681B6822F001021A603E
:102DB8000FE0FFF725FB02463B69D31A052B08D91C
:102DC8007B6820225A657B68032283F83520032319
:102DD80078E07B681B681B6803F00103002BE8D1CF
:102DE8007B681B681B687B617A69384B13407B6181
:102DF8007B685A687B689B681A437B68DB681A4360
:102E08007B681B691A437B685B691A437B689B690B
:102E18001A437B68DB691A437B681B6A13437A6928
:102E280013437B617B685B6A042B07D17B68DA6A92
:102E38007B681B6B13437A6913437B617B681B6850
:102E48007A691A607B681B685B697B617B6923F020
:102E580007037B617B685B6A7A6913437B617B68E4
:102E68005B6A042B17D17B689B6A7A6913437B6181
:102E78007B68DB6A002B0ED0786800F051FD0346B2
:102E8800002B08D07B6840225A657B68012283F8B2
:102E98003520012316E07B681B687A695A617868D7
:102EA80000F008FD0346FB607B68DB6D3F229A401B
:102EB800FB689A607B6800225A657B68012283F868
:102EC8003520002318461837BD4680BD3F8010F0D6
:102ED80080B584B000AF78607B68002B01D10123F6
:102EE80050E07B6893F83530DBB2022B01D1022326
:102EF80048E07B681B681A687B681B6822F001023F
:102F08001A607B681B6800221A607B681B680022B5
:102F18005A607B681B6800229A607B681B680022E5
:102F2800DA607B681B6800221A617B681B682122B3
:102F38005A61786800F0BEFC0346FB607B6800229B
:102F4800DA637B6800221A647B6800225A647B6813
:102F580000229A647B680022DA647B6800221A6582
:102F68007B68DB6D3F229A40FB689A607B68002291
:102F78005A657B68002283F835207B68002283F835
:102F88003420002318461037BD4680BD80B586B072
:102F980000AFF860B9607A603B600023FB75FB689E
:102FA80093F83430012B01D1022326E0FB6801227B
:102FB80083F83420FB6893F83530DBB2012B15D148
:102FC800FB68022283F83520FB6800225A653B68BB
:102FD8007A68B968F86800F03FFCFB681B681A68F3
:102FE800FB681B6842F001021A6005E0FB680022DA
:102FF80083F834200223FB75FB7D18461837BD463D
:1030080080BD80B586B000AFF860B9607A603B607B
:103018000023FB75FB689B6D3B61FB6893F83430BC
:10302800012B01D1022340E0FB68012283F8342000
:10303800FB6893F83530DBB2012B2FD1FB680222F5
:1030480083F83520FB6800225A653B687A68B968BE
:10305800F86800F001FCFB68DB6D3F229A403B6991
:103068009A60FB681B681A68FB681B6842F01602C6
:103078001A60FB681B6C002B07D0FB681B681A687A
:10308800FB681B6842F008021A60FB681B681A6834
:10309800FB681B6842F001021A6005E0FB68002229
:1030A80083F834200223FB75FB7D18461837BD468C
:1030B80080BD80B584B000AF78607B689B6DFB6095
:1030C800FFF79EF9B8607B6893F83530DBB2022BC6
:1030D80008D07B6880225A657B68002283F83420F8
:1030E800012352E07B681B681A687B681B6822F022
:1030F80016021A607B681B685A697B681B6822F095
:1031080080025A617B681B6C002B03D17B689B6C27
:10311800002B07D07B681B681A687B681B6822F045
:1031280008021A607B681B681A687B681B6822F0B3
:1031380001021A6013E0FFF763F90246BB68D31A6D
:10314800052B0CD97B6820225A657B68032283F8FB
:1031580035207B68002283F83420032315E07B6840
:103168001B681B6803F00103002BE4D17B68DB6D4F
:103178003F229A40FB689A607B68012283F83520D9
:103188007B68002283F83420002318461037BD4698
:1031980080BD80B483B000AF78607B6893F8353029
:1031A800DBB2022B04D07B6880225A6501230CE035
:1031B8007B68052283F835207B681B681A687B6862
:1031C8001B6822F001021A60002318460C37BD461E
:1031D8005DF8047B704780B58AB000AFF8600B4695
:1031E8007A60FB720023FB77FFF70AF9B861FB6886
:1031F80093F83530DBB2022B08D0FB6880225A6581
:10320800FB68002283F834200123BFE0FB681B68B9
:103218001B6803F48073002B05D0FB684FF48072A1
:103228005A650123B2E0FB7A002B06D1FB68DB6DFF
:10323800202202FA03F37B6205E0FB68DB6D1022B3
:1032480002FA03F37B62FB689B6D7B617B691B68F9
:103258003B625AE07B68B3F1FF3F17D07B68002BD5
:1032680007D0FFF7CDF80246BB69D31A7A689A42AD
:103278000CD2FB6820225A65FB68012283F83520AE
:10328800FB68002283F8342003237FE07B691B68F6
:103298003B62FB68DB6D08229A403B6A1340002BB7
:1032A8000BD0FB685B6D43F00102FB685A65FB6855
:1032B800DB6D08229A407B699A60FB68DB6D01220E
:1032C8009A403B6A1340002B0BD0FB685B6D43F0C0
:1032D8000202FB685A65FB68DB6D01229A407B6934
:1032E8009A60FB68DB6D04229A403B6A1340002B0E
:1032F8000BD0FB685B6D43F00402FB685A65FB6802
:10330800DB6D04229A407B699A603A6A7B6A1340B3
:10331800002B05D1FB685B6D03F00103002B99D0EE
:10332800FB685B6D002B18D0FB685B6D03F0010335
:10333800002B12D0F868FFF7BCFEFB68DB6D30226B
:103348009A407B699A60FB68012283F83520FB6804
:10335800002283F83420012318E0FB7A002B0ED1D9
:10336800FB68DB6D30229A407B699A60FB6801221A
:1033780083F83520FB68002283F8342005E0FB68D9
:10338800DB6D10229A407B699A60FB7F18462837CC
:10339800BD4680BD80B586B000AF78600023BB60B5
:1033A8008E4B1B688E4AA2FB03239B0A7B617B68BA
:1033B8009B6D3B613B691B68FB607B68DB6D08228A
:1033C8009A40FB681340002B1AD07B681B681B6867
:1033D80003F00403002B13D07B681B681A687B6812
:1033E8001B6822F004021A607B68DB6D08229A4091
:1033F8003B699A607B685B6D43F001027B685A65A4
:103408007B68DB6D01229A40FB681340002B12D0C9
:103418007B681B685B6903F08003002B0BD07B681B
:10342800DB6D01229A403B699A607B685B6D43F0D3
:1034380002027B685A657B68DB6D04229A40FB6850
:103448001340002B12D07B681B681B6803F0020333
:10345800002B0BD07B68DB6D04229A403B699A6095
:103468007B685B6D43F004027B685A657B68DB6DA3
:1034780010229A40FB681340002B43D07B681B68DE
:103488001B6803F00803002B3CD07B68DB6D10221F
:103498009A403B699A607B681B681B6803F4802329
:1034A800002B18D07B681B681B6803F40023002BD3
:1034B80008D17B681B6C002B24D07B681B6C786858
:1034C80098471FE07B689B6C002B1BD07B689B6C2C
:1034D8007868984716E07B681B681B6803F480735C
:1034E800002B07D17B681B681A687B681B6822F071
:1034F80008021A607B681B6C002B03D07B681B6C6E
:10350800786898477B68DB6D20229A40FB681340F7
:10351800002B00F08F807B681B681B6803F010038A
:10352800002B00F087807B68DB6D20229A403B6986
:103538009A607B6893F83530DBB2052B36D17B680F
:103548001B681A687B681B6822F016021A607B6881
:103558001B685A697B681B6822F080025A617B6885
:103568001B6C002B03D17B689B6C002B07D07B68FE
:103578001B681A687B681B6822F008021A607B685F
:10358800DB6D3F229A403B699A607B68012283F891
:1035980035207B68002283F834207B681B6D002B64
:1035A8007ED07B681B6D7868984779E07B681B68DC
:1035B8001B6803F48023002B1DD07B681B681B68E5
:1035C80003F40023002B0DD17B685B6C002B31D0FA
:1035D8007B685B6C786898472CE000BF0800002087
:1035E800B5814E1B7B68DB6B002B23D07B68DB6BC4
:1035F800786898471EE07B681B681B6803F4807333
:10360800002B0FD17B681B681A687B681B6822F047
:1036180010021A607B68012283F835207B6800223B
:1036280083F834207B68DB6B002B03D07B68DB6B73
:10363800786898477B685B6D002B32D07B685B6D40
:1036480003F00103002B22D07B68052283F8352084
:103658007B681B681A687B681B6822F001021A6085
:10366800BB680133BB607A699A4207D37B681B68E1
:103678001B6803F00103002BF2D100E000BF7B6858
:10368800012283F835207B68002283F834207B6888
:10369800DB6C002B05D07B68DB6C7868984700E012
:1036A80000BF1837BD4680BD80B487B000AFF86052
:1036B8000B467A60FB720023FB75FB6893F8343085
:1036C800012B01D102233DE0FB68012283F834205D
:1036D800FB6893F83530DBB2012B2CD1FB7A052B34
:1036E80026D801A252F823F009370008113700083C
:1036F8001937000821370008293700083137000832
:10370800FB687A68DA6318E0FB687A681A6414E080
:10371800FB687A685A6410E0FB687A689A640CE07F
:10372800FB687A68DA6408E0FB687A681A6504E07E
:103738000123FB7501E00123FB75FB68002283F878
:103748003420FB7D18461C37BD465DF8047B704766
:1037580080B485B000AF78600B46FB700023FB7324
:103768007B6893F83430012B01D1022353E07B6846
:10377800012283F834207B6893F83530DBB2012BC3
:1037880042D1FB78062B3CD801A252F823F000BFA7
:10379800B5370008BD370008C5370008CD37000821
:1037A800D5370008DD370008E53700087B680022B8
:1037B800DA632BE07B6800221A6427E07B6800222A
:1037C8005A6423E07B6800229A641FE07B68002229
:1037D800DA641BE07B6800221A6517E07B68002228
:1037E800DA637B6800221A647B6800225A647B686B
:1037F80000229A647B680022DA647B6800221A65DA
:1038080004E00123FB7301E00123FB737B680022C2
:1038180083F83420FB7B18461437BD465DF8047BDB
:10382800704700BF80B483B000AF78607B6893F8BE
:103838003530DBB218460C37BD465DF8047B70475F
:1038480080B483B000AF78607B685B6D18460C3736
:10385800BD465DF8047B704780B485B000AFF86062
:10386800B9607A603B60FB681B681A68FB681B6874
:1038780022F480221A60FB681B683A685A60FB6869
:103888009B68402B08D1FB681B687A689A60FB68C4
:103898001B68BA68DA6007E0FB681B68BA689A6058
:1038A800FB681B687A68DA6000BF1437BD465DF8AC
:1038B800047B704780B485B000AF78607B681B6874
:1038C800DBB2103B144AA2FB03231B09FB60134A1B
:1038D800FB6813441B781A467B68DA65FB68032B80
:1038E80009D97B681B6823F47F7323F003031A1D2F
:1038F8007B689A6507E07B681B6823F47F7323F075
:1039080003037A6893657B689B6D18461437BD4638
:103918005DF8047B704700BFABAAAAAA1052020840
:1039280080B485B000AF78600023FB737B689B6A26
:10393800BB607B689B69002B1FD1BB68032B56D8E3
:1039480001A252F823F000BF61390008733900085A
:1039580061390008F73900087B68DB6A03F0807377
:10396800002B46D00123FB7343E07B68DB6AB3F18D
:10397800C07F40D10123FB733DE07B689B69B3F5B1
:10398800005F21D1BB68032B37D801A252F823F07E
:10399800A9390008AF390008A9390008C139000859
:1039A8000123FB7330E07B68DB6A03F08073002B34
:1039B80025D00123FB7322E07B68DB6AB3F1C07F6B
:1039C8001FD10123FB731CE0BB68022B03D9BB6822
:1039D800032B03D018E00123FB7315E07B68DB6A37
:1039E80003F08073002B0ED00123FB730BE000BFA4
:1039F8000AE000BF08E000BF06E000BF04E000BF27
:103A080002E000BF00E000BFFB7B18461437BD464C
:103A18005DF8047B704700BF80B586B000AFF860E2
:103A2800B9607A603B600023FB75FB689B68802B5C
:103A380006D1FB684FF480725A650123FB7531E0AB
:103A4800FB6893F83430012B01D102232BE0FB688B
:103A5800012283F83420FB6893F83530DBB2012B60
:103A68001ED1FB68022283F83520FB681B681A68A0
:103A7800FB681B6842F480221A60FB681B683A687E
:103A88001A613B6A7A68B968F86801F073F9FB68EB
:103A98001B681A68FB681B6842F001021A6001E0A3
:103AA8000223FB75FB7D18461837BD4680BD000014
:103AB80080B586B000AFF860B9607A603B600023DB
:103AC800FB75FB689B68802B06D1FB684FF48072FE
:103AD8005A65012301F011B9FB68DB6B002B07D095
:103AE800FB685B6C002B03D0FB68DB6C002B05D1FB
:103AF800FB6840225A65012301F0FFB8FB6893F880
:103B08003430012B02D1022301F0F7B8FB680122FF
:103B180083F83420FB6893F83530DBB2012B41F091
:103B2800E580FB68022283F83520FB6800225A658D
:103B3800FB681B681A68FB681B6842F480221A60DD
:103B4800FB681B683A681A613B6A7A68B968F86862
:103B580001F010F9FB681B681A468D4B9A4260D930
:103B6800FB681B688B4A934257D0FB681B688A4ADC
:103B7800934250D0FB681B68884A934249D0FB683F
:103B88001B68874A934242D0FB681B68854A934268
:103B98003AD0FB681B68844A934232D0FB681B68A2
:103BA800824A93422AD0FB681B68814A934222D0FA
:103BB800FB681B687F4A93421AD0FB681B687E4AE1
:103BC800934212D0FB681B687C4A93420AD0FB6878
:103BD8001B687B4A934202D14FF400131EE04FF05A
:103BE80000631BE04FF4001318E04FF4001315E0D6
:103BF8004FF4001312E04FF400630FE04FF400633A
:103C08000CE04FF4006309E04FF4006306E0202362
:103C180004E0202302E0202300E02023694AD36047
:103C28004FE1FB681B681A46674B9A4260D9FB68EC
:103C38001B68584A934257D0FB681B68564A934200
:103C480050D0FB681B68554A934249D0FB681B68F3
:103C5800534A934242D0FB681B68524A93423AD077
:103C6800FB681B68504A934232D0FB681B684F4A76
:103C780093422AD0FB681B684D4A934222D0FB68C6
:103C88001B684C4A93421AD0FB681B684A4A934205
:103C980012D0FB681B68494A93420AD0FB681B682C
:103CA800474A934202D14FF400131EE04FF00063DD
:103CB8001BE04FF4001318E04FF4001315E04FF425
:103CC800001312E04FF400630FE04FF400630CE0C0
:103CD8004FF4006309E04FF4006306E0202304E09A
:103CE800202302E0202300E02023364A9360E8E006
:103CF800FB681B681A46354B9A4240F28280FB6883
:103D08001B68244A934278D0FB681B68224A934276
:103D180071D0FB681B68214A93426AD0FB681B6814
:103D28001F4A934263D0FB681B681E4A93425BD0CC
:103D3800FB681B681C4A934253D0FB681B681B4AEC
:103D480093424BD0FB681B68194A934243D0FB68E7
:103D58001B68184A93423BD0FB681B68164A93427B
:103D680012D0FB681B68154A93420AD0FB681B688F
:103D7800134A934202D14FF400133FE04FF000631F
:103D88003CE04FF4001339E04FF4001336E000BF75
:103D980058640240106002401064024070600240A3
:103DA8007064024028600240286402408860024033
:103DB800886402404060024040640240A0600240C3
:103DC800A064024000640240B860024058600240AB
:103DD8004FF4001312E04FF400630FE04FF4006358
:103DE8000CE04FF4006309E04FF4006306E0202381
:103DF80004E0202302E0202300E020238C4AD36043
:103E08005FE0FB681B688B4A934257D0FB681B68CE
:103E1800894A934250D0FB681B68884A934249D02C
:103E2800FB681B68864A934242D0FB681B68854A38
:103E380093423AD0FB681B68834A934232D0FB68AE
:103E48001B68824A93422AD0FB681B68804A9342C7
:103E580022D0FB681B687F4A93421AD0FB681B6814
:103E68007D4A934212D0FB681B687C4A93420AD071
:103E7800FB681B687A4A934202D14FF400131EE094
:103E88004FF000631BE04FF4001318E04FF40013E9
:103E980015E04FF4001312E04FF400630FE04FF405
:103EA80000630CE04FF4006309E04FF4006306E0A0
:103EB800202304E0202302E0202300E020235C4AA2
:103EC8009360FB681B681A46664B9A4260D9FB6888
:103ED8001B68584A934257D0FB681B68564A93425E
:103EE80050D0FB681B68554A934249D0FB681B6851
:103EF800534A934242D0FB681B68524A93423AD0D5
:103F0800FB681B68504A934232D0FB681B684F4AD3
:103F180093422AD0FB681B684D4A934222D0FB6823
:103F28001B684C4A93421AD0FB681B684A4A934262
:103F380012D0FB681B68494A93420AD0FB681B6889
:103F4800474A934202D14FF480131EE04FF080633A
:103F58001BE04FF4801318E04FF4801315E04FF482
:103F6800801312E04FF480630FE04FF480630CE09D
:103F78004FF4806309E04FF4806306E0102304E007
:103F8800102302E0102300E01023374AD3604FE1EA
:103F9800FB681B681A46354B9A4240F28280FB68E0
:103FA8001B68244A934278D0FB681B68224A9342D4
:103FB80071D0FB681B68214A93426AD0FB681B6872
:103FC8001F4A934263D0FB681B681E4A93425BD02A
:103FD800FB681B681C4A934253D0FB681B681B4A4A
:103FE80093424BD0FB681B68194A934243D0FB6845
:103FF8001B68184A93423BD0FB681B68164A9342D9
:1040080012D0FB681B68154A93420AD0FB681B68EC
:10401800134A934202D14FF480133FE04FF080637C
:104028003CE04FF4801339E04FF4801336E000BFD2
:10403800006002401060024010640240706002405C
:104048007064024028600240286402408860024090
:10405800886402404060024040640240A060024020
:10406800A06402405864024000640240B860024004
:104078004FF4801312E04FF480630FE04FF4806335
:104088000CE04FF4806309E04FF4806306E01023EE
:1040980004E0102302E0102300E010238C4A936010
:1040A800C6E0FB681B681A468A4B9A4260D9FB68CF
:1040B8001B68894A934257D0FB681B68874A93421A
:1040C80050D0FB681B68864A934249D0FB681B683E
:1040D800844A934242D0FB681B68834A93423AD091
:1040E800FB681B68814A934232D0FB681B68804A90
:1040F80093422AD0FB681B687E4A934222D0FB6811
:104108001B687D4A93421AD0FB681B687B4A93421E
:1041180012D0FB681B687A4A93420AD0FB681B6876
:10412800784A934202D14FF480131EE04FF0806327
:104138001BE04FF4801318E04FF4801315E04FF4A0
:10414800801312E04FF480630FE04FF480630CE0BB
:104158004FF4806309E04FF4806306E0102304E025
:10416800102302E0102300E01023674AD3605FE0C9
:10417800FB681B68584A934257D0FB681B68574A2C
:10418800934250D0FB681B68554A934249D0FB685C
:104198001B68544A934242D0FB681B68524A9342B8
:1041A8003AD0FB681B68514A934232D0FB681B68BF
:1041B8004F4A93422AD0FB681B684E4A934222D04A
:1041C800FB681B684C4A93421AD0FB681B684B4A31
:1041D800934212D0FB681B68494A93420AD0FB6895
:1041E8001B68484A934202D14FF480131EE04FF0F7
:1041F80080631BE04FF4801318E04FF4801315E040
:104208004FF4801312E04FF480630FE04FF48063A3
:104218000CE04FF4806309E04FF4806306E010235C
:1042280004E0102302E0102300E01023364A9360D4
:10423800FB681B681A46354B9A4240F28280FB683D
:104248001B68254A934278D0FB681B68234A93422F
:1042580071D0FB681B68224A93426AD0FB681B68CE
:10426800204A934263D0FB681B681F4A93425BD085
:10427800FB681B681D4A934253D0FB681B681C4AA5
:1042880093424BD0FB681B681A4A934243D0FB68A1
:104298001B68194A93423BD0FB681B68174A934234
:1042A80012D0FB681B68164A93420AD0FB681B6849
:1042B800144A934202D14FF400233FE04FF00073B9
:1042C8003CE04FF4002339E04FF4002336E000BF10
:1042D80000640240586002401060024010640240CE
:1042E8007060024070640240286002402864024006
:1042F8008860024088640240406002404064024096
:10430800A0600240A064024000600240586402407D
:104318004FF4002312E04FF400730FE04FF40073E2
:104328000CE04FF4007309E04FF4007306E0082333
:1043380004E0082302E0082300E008238C4AD36045
:104348004EE1FB681B681A468A4B9A4260D9FB68A3
:104358001B68894A934257D0FB681B68874A934277
:1043680050D0FB681B68864A934249D0FB681B689B
:10437800844A934242D0FB681B68834A93423AD0EE
:10438800FB681B68814A934232D0FB681B68804AED
:1043980093422AD0FB681B687E4A934222D0FB686E
:1043A8001B687D4A93421AD0FB681B687B4A93427C
:1043B80012D0FB681B687A4A93420AD0FB681B68D4
:1043C800784A934202D14FF400231EE04FF0007365
:1043D8001BE04FF4002318E04FF4002315E04FF4DE
:1043E800002312E04FF400730FE04FF400730CE069
:1043F8004FF4007309E04FF4007306E0082304E06B
:10440800082302E0082300E00823594A9360E7E004
:10441800FB681B681A46644B9A4260D9FB681B68A4
:10442800554A934257D0FB681B68544A934250D070
:10443800FB681B68524A934249D0FB681B68514A83
:10444800934242D0FB681B684F4A93423AD0FB68BC
:104458001B684E4A934232D0FB681B684C4A934211
:104468002AD0FB681B684B4A934222D0FB681B6822
:10447800494A93421AD0FB681B68484A934212D0B3
:10448800FB681B68464A93420AD0FB681B68454A8A
:10449800934202D14FF400231EE04FF000731BE05B
:1044A8004FF4002318E04FF4002315E04FF40023E5
:1044B80012E04FF400730FE04FF400730CE04FF478
:1044C800007309E04FF4007306E0082304E00823B2
:1044D80002E0082300E00823344AD36080E0FB6848
:1044E8001B68254A934278D0FB681B68234A93428D
:1044F80071D0FB681B68224A93426AD0FB681B682C
:10450800204A934263D0FB681B681F4A93425BD0E2
:10451800FB681B681D4A934253D0FB681B681C4A02
:1045280093424BD0FB681B681A4A934243D0FB68FE
:104538001B68194A93423BD0FB681B68174A934291
:1045480012D0FB681B68164A93420AD0FB681B68A6
:10455800144A934202D14FF400233FE04FF0007316
:104568003CE04FF4002339E04FF4002336E000BF6D
:1045780000640240B86002401060024010640240CB
:104588007060024070640240286002402864024063
:1045980088600240886402404060024040640240F3
:1045A800A0600240A06402405860024000600240DF
:1045B8004FF4002312E04FF400730FE04FF4007340
:1045C8000CE04FF4007309E04FF4007306E0082391
:1045D80004E0082302E0082300E008238A4A9360E5
:1045E800FB681B681A46894B9A4260D9FB681B68AE
:1045F800874A934257D0FB681B68864A934250D03B
:10460800FB681B68844A934249D0FB681B68834A4D
:10461800934242D0FB681B68814A93423AD0FB68B8
:104628001B68804A934232D0FB681B687E4A9342DB
:104638002AD0FB681B687D4A934222D0FB681B681E
:104648007B4A93421AD0FB681B687A4A934212D07D
:10465800FB681B68784A93420AD0FB681B68774A54
:10466800934202D14FF480231EE04FF080731BE089
:104678004FF4802318E04FF4802315E04FF4802393
:1046880012E04FF480730FE04FF480730CE04FF4A6
:10469800807309E04FF4807306E0042304E00423E8
:1046A80002E0042300E00423654AD36050E1FB687C
:1046B8001B681A46634B9A4260D9FB681B68544AC8
:1046C800934257D0FB681B68524A934250D0FB680C
:1046D8001B68514A934249D0FB681B684F4A934272
:1046E80042D0FB681B684E4A93423AD0FB681B686D
:1046F8004C4A934232D0FB681B684B4A93422AD0FB
:10470800FB681B68494A934222D0FB681B68484AE9
:1047180093421AD0FB681B68464A934212D0FB6842
:104728001B68454A93420AD0FB681B68434A934278
:1047380002D14FF480231EE04FF080731BE04FF44A
:10474800802318E04FF4802315E04FF4802312E013
:104758004FF480730FE04FF480730CE04FF48073D4
:1047680009E04FF4807306E0042304E0042302E028
:10477800042300E00423324A9360E9E0FB681B68E5
:104788001A46314B9A4240F28380FB681B68204AE4
:10479800934279D0FB681B681E4A934272D0FB682B
:1047A8001B681D4A93426BD0FB681B681B4A9342E7
:1047B80064D0FB681B681A4A93425CD0FB681B688C
:1047C800184A934254D0FB681B68174A93424CD04E
:1047D800FB681B68154A934244D0FB681B68144A5F
:1047E80093423CD0FB681B68124A934234D0FB6862
:1047F8001B68114A93422CD0FB681B680F4A9342EE
:1048080024D14FF4802340E0006002405864024005
:104818001060024010640240706002407064024000
:104828002860024028640240886002408864024090
:104838004060024040640240A0600240A064024020
:1048480000640240B8600240586002404FF0807334
:104858001BE04FF4802318E04FF4802315E04FF459
:10486800802312E04FF480730FE04FF480730CE064
:104878004FF4807309E04FF4807306E0042304E0EA
:10488800042302E0042300E004238B4AD3605FE0A2
:10489800FB681B68894A934257D0FB681B68884AA3
:1048A800934250D0FB681B68864A934249D0FB6804
:1048B8001B68854A934242D0FB681B68834A93422F
:1048C8003AD0FB681B68824A934232D0FB681B6867
:1048D800804A93422AD0FB681B687F4A934222D0C1
:1048E800FB681B687D4A93421AD0FB681B687C4AA8
:1048F800934212D0FB681B687A4A93420AD0FB683D
:104908001B68794A934202D14FF480231EE04FF08E
:1049180080731BE04FF4802318E04FF4802315E0E8
:104928004FF4802312E04FF480730FE04FF480734C
:104938000CE04FF4807309E04FF4807306E0042321
:1049480004E0042302E0042300E004235A4A9360AD
:10495800FB681B681A46654B9A425CD9FB681B6862
:10496800564A934253D0FB681B68554A93424CD031
:10497800FB681B68534A934245D0FB681B68524A40
:1049880093423ED0FB681B68504A934237D0FB687D
:104998001B684F4A934230D0FB681B684D4A9342CC
:1049A80029D0FB681B684C4A934222D0FB681B68DD
:1049B8004A4A93421AD0FB681B68494A934212D06C
:1049C800FB681B68474A93420AD0FB681B68464A43
:1049D800934202D14FF480331AE04FF4800317E07A
:1049E8004FF4803314E04FF4803311E04FF48033F8
:1049F8000EE040230CE040230AE0402308E0402377
:104A080006E0012304E0012302E0012300E0012382
:104A1800374AD36041E1FB681B681A46354B9A4216
:104A28007CD9FB681B68254A934273D0FB681B68D6
:104A3800234A93426CD0FB681B68224A934265D094
:104A4800FB681B68204A93425ED0FB681B681F4ABC
:104A5800934257D0FB681B681D4A934250D0FB68AD
:104A68001B681C4A934249D0FB681B681A4A934248
:104A780042D0FB681B68194A93421AD0FB681B682E
:104A8800174A934212D0FB681B68164A93420AD011
:104A9800FB681B68144A934202D14FF480333AE012
:104AA8004FF4800337E04FF4803334E04FF4803321
:104AB80031E04FF480332EE0006002401060024085
:104AC8001064024070600240706402402860024036
:104AD80028640240886002408864024040600240C6
:104AE80040640240A0600240A06402405864024052
:104AF80000640240B860024040230CE040230AE012
:104B0800402308E0402306E0012304E0012302E0FB
:104B1800012300E001237B4A9360BEE0FB681B6829
:104B28001A46794B9A425CD9FB681B68774A9342CC
:104B380053D0FB681B68764A93424CD0FB681B68CD
:104B4800744A934245D0FB681B68734A93423ED02F
:104B5800FB681B68714A934237D0FB681B68704A30
:104B6800934230D0FB681B686E4A934229D0FB6899
:104B78001B686D4A934222D0FB681B686B4A9342BC
:104B88001AD0FB681B686A4A934212D0FB681B68FC
:104B9800684A93420AD0FB681B68674A934202D16D
:104BA8004FF480331AE04FF4800317E04FF480335A
:104BB80014E04FF4803311E04FF480330EE04023CB
:104BC8000CE040230AE0402308E0402306E00123EC
:104BD80004E0012302E0012300E00123574AD360E7
:104BE8005BE0FB681B68494A934253D0FB681B682B
:104BF800474A93424CD0FB681B68464A934245D0CB
:104C0800FB681B68444A93423ED0FB681B68434AD2
:104C1800934237D0FB681B68414A934230D0FB6807
:104C28001B68404A934229D0FB681B683E4A93425E
:104C380022D0FB681B683D4A93421AD0FB681B6868
:104C48003B4A934212D0FB681B683A4A93420AD007
:104C5800FB681B68384A934202D14FF480331AE04C
:104C68004FF4800317E04FF4803314E04FF480339F
:104C780011E04FF480330EE040230CE040230AE0BB
:104C8800402308E0402306E0012304E0012302E07A
:104C9800012300E00123294A9360FB681B681A6816
:104CA800FB681B6842F016021A60FB681B685A69A9
:104CB800FB681B6842F080025A61FB681B6C002B82
:104CC80003D1FB689B6C002B07D0FB681B681A6834
:104CD800FB681B6842F008021A60FB681B681A68C8
:104CE800FB681B6842F001021A6005E0FB680022BD
:104CF80083F834200223FB75FB7D18461837BD4620
:104D080080BD00BF0064024058600240106002404D
:104D180010640240706002407064024028600240E3
:104D28002864024088600240886402404060024073
:104D380040640240A0600240A0640240006002405B
:104D480080B485B000AFF860B9601346FB71FB7999
:104D5800002B04D1FB681B68BA68DA6003E0FB68C3
:104D68001B68BA681A61002318461437BD465DF8F7
:104D7800047B704780B485B000AFF860B9607A6092
:104D88003B60FB681B683A685A60FB689B68402B6D
:104D980008D1FB681B687A689A60FB681B68BA6868
:104DA800DA6007E0FB681B68BA689A60FB681B68F2
:104DB8007A68DA6000BF1437BD465DF8047B704737
:104DC80080B487B000AF786039607B68002B02D070
:104DD8003B68002B01D101238FE03B681A687B6890
:104DE8001A603B681B6803F01F037B6101227B6923
:104DF80002FA03F33B613B681B6803F00073002B66
:104E080052D03B689B6803F00103002B06D03E4B51
:104E18009A683D493B6913438B6006E03A4B9A68B0
:104E28003B69DB43384913408B603B689B6803F060
:104E38000203002B06D0344BDA6833493B6913432D
:104E4800CB6006E0304BDA683B69DB432E49134000
:104E5800CB603B681B6803F0C063B3F1C06F23D11C
:104E68002A4A7B699B08023352F82330FB607B692E
:104E780003F003039B000F2202FA03F3DB43FA68F3
:104E88001340FB603B68DA687B6903F003039B000F
:104E980002FA03F3FA681343FB601C497B699B0819
:104EA8000233FA6841F823203B685B6803F001038A
:104EB800002B06D0144B1A6813493B6913430B6047
:104EC80006E0114B1A683B69DB430F4913400B603E
:104ED8003B685B6803F00203002B06D00A4B5A6854
:104EE80009493B6913434B6006E0074B5A683B6925
:104EF800DB43054913404B60002318461C37BD4669
:104F08005DF8047B704700BF003C01400038014059
:104F180080B487B000AF786039607B68002B02D01E
:104F28003B68002B01D1012361E07B681A683B686C
:104F38001A603B681B6803F01F037B6101227B69D1
:104F480002FA03F33B612D4B1A683B691340002BAF
:104F580003D03B6801225A6002E03B6800225A6095
:104F6800264B5A683B691340002B05D03B685B68A9
:104F780043F002023B685A603B6800229A603B6833
:104F88000022DA603B681B6803F00073002B2DD009
:104F98001A4B9A683B691340002B02D03B680122E8
:104FA8009A60164BDA683B691340002B05D03B68C2
:104FB8009B6843F002023B689A603B681B6803F0F9
:104FC800C063B3F1C06F11D10D4A7B699B080233EE
:104FD80052F82330FB607B6903F003039B00FA68F7
:104FE80022FA03F303F00F023B68DA600023184645
:104FF8001C37BD465DF8047B704700BF003C01408C
:105008000038014080B487B000AF78607B68002B1F
:1050180001D101234CE07B681B6803F01F037B610F
:1050280001227B6902FA03F33B61244B1A683B694E
:10503800DB43224913400B60204B5A683B69DB4332
:105048001E4913404B607B681B6803F00073002BFC
:105058002DD01A4B9A683B69DB43184913408B6083
:10506800164BDA683B69DB4314491340CB607B6815
:105078001B6803F0C063B3F1C06F18D1104A7B6995
:105088009B08023352F82330FB607B6903F003036B
:105098009B000F2202FA03F3DB43FA681340FB601C
:1050A80007497B699B080233FA6841F823200023EB
:1050B80018461C37BD465DF8047B7047003C01402C
:1050C8000038014080B487B000AFF8600B467A60C2
:1050D800FB720023FB75FB7A002B03D1FB687A680F
:1050E8005A6002E00123FB7500BFFB7D18461C37A0
:1050F800BD465DF8047B704780B483B000AF78602C
:1051080039607B68002B01D1012303E07B683A6892
:105118001A60002318460C37BD465DF8047B7047BB
:1051280080B584B000AF78607B681B6803F01F030C
:10513800012202FA03F3FB600A4B5B69FA68134029
:10514800BB60BB68002B09D0064AFB6853617B68CB
:105158005B68002B02D07B685B68984700BF1037FC
:10516800BD4680BD003C014080B487B000AF786088
:1051780039607B681B6803F01F037B6101227B6930
:1051880002FA03F33B61074B5A693B691A407B6992
:1051980022FA03F3FB60FB6818461C37BD465DF82E
:1051A800047B7047003C014080B485B000AF786054
:1051B80039607B681B6803F01F03012202FA03F3BE
:1051C800FB60044AFB68536100BF1437BD465DF8B5
:1051D800047B7047003C014080B485B000AF786024
:1051E8007B681B6803F01F03012202FA03F3FB60CC
:1051F800044AFB68136100BF1437BD465DF8047BA1
:10520800704700BF003C014080B586B000AFF86031
:10521800B960C7E90023234B1B7E012B01D1022370
:105228003BE0204B01221A764CF2503000F0B0F9E6
:105238000346FB75FB7D002B2BD1FB68002B05D1AA
:105248003B781946B86800F05BFA16E0FB68012B5A
:1052580005D13B881946B86800F02EFA0DE0FB68C6
:10526800022B05D13B681946B86800F003FA04E040
:10527800D7E90023B86800F0CBF94CF2503000F0C1
:1052880087F90346FB75084B1B69074A23F001039E
:105298001361044B00221A76FB7D18461837BD4669
:1052A80080BD00BF040F0020003C024080B586B0DE
:1052B80000AFF860B960C7E900230023FB751B4BFA
:1052C8001B691A4A43F080731361184B1B69174A0C
:1052D80043F000731361164B03221A70144ABB681B
:1052E8005361FB68002B05D13B781946B86800F07C
:1052F80007FA16E0FB68012B05D13B881946B86808
:1053080000F0DAF90DE0FB68022B05D13B6819467D
:10531800B86800F0AFF904E0D7E90023B86800F0F6
:1053280077F9FB7D18461837BD4680BD003C024022
:10533800040F002080B582B000AF00237B60494B8A
:10534800DB6803F4F973002B20D0474B1B78DBB2E2
:10535800012B07D1444BDB687B60434B4FF0FF3296
:10536800DA600BE0404B1B78DBB2022B03D13E4BDB
:105378001B697B6002E03C4B5B697B6000F0E2F9F3
:10538800786800F07DF8384B00221A70354BDB68DE
:1053980003F00103002B4AD0324B0122DA60324B72
:1053A8001B78DBB2012B2DD12F4B5B68013B2E4ABA
:1053B80053602D4B5B68002B15D02B4BDB687B6053
:1053C800786800F053F8284BDB680133264AD3602D
:1053D800254BDB687B60244B1B7ADBB21946786867
:1053E80000F0EAFB23E04FF0FF337B601E4A7B6846
:1053F800D3601D4B00221A7000F05CFD786800F045
:1054080035F814E0184B1B78DBB2022B07D100F0FB
:1054180051FD154B1B69184600F028F804E0124BA3
:105428005B69184600F022F80F4B00221A700E4BE9
:105438001B78DBB2002B11D10A4B1B69094A23F0F8
:10544800FF031361074B1B69064A23F0807313613E
:10545800044B1B69034A23F00073136100BF08372C
:10546800BD4680BD003C0240040F002080B483B0DC
:1054780000AF786000BF0C37BD465DF8047B70470D
:1054880080B483B000AF786000BF0C37BD465DF8CC
:10549800047B704780B483B000AF0023FB710B4BD3
:1054A8001B69002B0BDA094B094A5A60074B094A5A
:1054B8005A60064B1B69002B01DA0123FB71FB794B
:1054C80018460C37BD465DF8047B7047003C024027
:1054D80023016745AB89EFCD80B400AF054B1B694D
:1054E800044A43F00043136100231846BD465DF8A3
:1054F800047B7047003C024080B400AF094B5B69F5
:1055080003F00103002B07D0064B074A9A60054BAE
:10551800064A9A60002300E001231846BD465DF85C
:10552800047B7047003C02403B2A19087F6E5D4CA3
:1055380080B400AF054B5B69044A43F00103536133
:1055480000231846BD465DF8047B7047003C0240C6
:1055580080B500AF074B1B78DBB2064A43F0020365
:10556800DBB213704CF2503000F012F803461846C4
:1055780080BD00BF143C024080B400AF034BDB6920
:105588001846BD465DF8047B704700BF040F002035
:1055980080B584B000AF78600023FB601A4B00220E
:1055A800DA61FCF72DFFF86010E07B68B3F1FF3F8C
:1055B8000CD07B68002B07D0FCF722FF0246FB6863
:1055C800D31A7A689A4201D2032319E00F4BDB6899
:1055D80003F48033002BE8D10C4BDB6803F00103A4
:1055E800002B02D0094B0122DA60084BDB6803F478
:1055F800F973002B03D000F0A5F8012300E0002385
:1056080018461037BD4680BD040F0020003C0240FC
:1056180080B485B000AFF860C7E90023144B1B695C
:10562800134A23F440731361114B1B69104A43F466
:10563800407313610E4B1B690D4A43F0010313615C
:10564800FB683A681A60BFF36F8F00BFD7E90001A3
:105658004FF000024FF000030A000023F9680431FC
:1056680013460B6000BF1437BD465DF8047B7047D6
:10567800003C024080B483B000AF786039600D4BC5
:105688001B690C4A23F4407313610A4B1B69094ACE
:1056980043F400731361074B1B69064A43F0010387
:1056A80013617B683A681A6000BF0C37BD465DF825
:1056B800047B7047003C024080B483B000AF786040
:1056C8000B467B800D4B1B690C4A23F44073136116
:1056D8000A4B1B69094A43F480731361074B1B6922
:1056E800064A43F0010313617B687A881A8000BF79
:1056F8000C37BD465DF8047B704700BF003C024094
:1057080080B483B000AF78600B46FB700C4B1B690C
:105718000B4A23F440731361094B094A1B6913614F
:10572800074B1B69064A43F0010313617B68FA784B
:105738001A7000BF0C37BD465DF8047B704700BF88
:10574800003C024080B400AF2F4BDB6803F010032D
:10575800002B08D02D4BDB6943F010032B4AD36193
:10576800294B1022DA60284BDB6803F02003002B5A
:1057780008D0264BDB6943F00803244AD361224B47
:105788002022DA60204BDB6803F04003002B08D0AE
:105798001E4BDB6943F004031C4AD3611A4B4022B9
:1057A800DA60194BDB6803F08003002B08D0174B35
:1057B800DB6943F00203154AD361134B8022DA6098
:1057C800114BDB6803F48073002B09D00F4BDB69A6
:1057D80043F001030D4AD3610B4B4FF48072DA603A
:1057E800094BDB6803F00203002B08D0074BDB6989
:1057F80043F02003054AD361034B0222DA6000BF5D
:10580800BD465DF8047B7047003C0240040F002051
:1058180080B584B000AF786039600023BB60314B3D
:105828001B7E012B01D1022358E02E4B01221A7650
:105838004CF25030FFF7ACFE0346FB73FB7B002BAA
:1058480048D13B684FF0FF321A607B681B68012B18
:1058580015D17B681B69DAB27B685B68194610460C
:1058680000F086F94CF25030FFF792FE0346FB73C6
:105878001D4B1B691C4A23F00403136128E07B6855
:105888009B68BB601CE07B681B69DBB21946B86883
:1058980000F092F94CF25030FFF77AFE0346FB73A2
:1058A800114B1B69104A23F0FA031361FB7B002B91
:1058B80003D03B68BA681A600AE0BB680133BB6072
:1058C8007B68DA687B689B681344BA689A42DAD3C3
:1058D80000F0F0FA034B00221A76FB7B18461037CB
:1058E800BD4680BD040F0020003C024080B584B056
:1058F80000AF78600023FB73204B1B691F4A43F0FD
:10590800807313611D4B1B691C4A43F000731361BC
:105918001A4BF322DA607B681B68012B10D1184BF5
:1059280002221A707B685B68154A13617B681B69E1
:10593800DAB27B685B681946104600F019F918E07E
:105948000F4B01221A707B68DB680D4A53607B6835
:105958009B680B4AD3607B681B69DAB2084B1A72E2
:105968007B689A687B681B69DBB21946104600F0B1
:1059780023F9FB7B18461037BD4680BD003C02402A
:10598800040F002080B584B000AF78600123FB735A
:10599800324B1B7E012B01D102235BE02F4B0122EE
:1059A8001A767B681B6803F00103002B18D07B680C
:1059B8005B68012B0AD17B689A687B68DB681946AB
:1059C800104600F041F90346FB7309E07B689A68CA
:1059D8007B68DB681946104600F058F90346FB73EC
:1059E8007B681B6803F00203002B07D07B681B69E8
:1059F800DBB2184600F0ACF90346FB737B681B6802
:105A080003F00403002B13D07B681B7E03F02003F4
:105A1800D8B27B681B7E03F04003D9B27B681B7E3B
:105A280023F07F03DBB21A4600F0ACF90346FB73A0
:105A38007B681B6803F00803002B07D07B685B6951
:105A4800DBB2184600F0CCF90346FB73034B002287
:105A58001A76FB7B18461037BD4680BD040F002020
:105A680080B582B000AF78607B680F221A6000F0C2
:105A7800E5F903461A467B689A6000F0EBF903469D
:105A88001A467B681A6100F0C9F903461A467B6812
:105A98001A7600F0FFF903461A467B685A6100BF80
:105AA8000837BD4680BD80B584B000AF786001235B
:105AB800FB737B681B6803F00103002B12D07B6823
:105AC8005B68012B07D17B681B89184600F0FEF83C
